:020000040000fa
:080000000001040000000000f3
:020000040000fa
:04000800c80100002b
:020000040000fa
:04000c00c801000027
:020000040000fa
:04001000c801000023
:020000040000fa
:04001400c80100001f
:020000040000fa
:04001800c80100001b
:020000040000fa
:04001c00c801000017
:020000040000fa
:04002000c801000013
:020000040000fa
:04002400c80100000f
:020000040000fa
:04002800c80100000b
:020000040000fa
:04002c00c801000007
:020000040000fa
:04003000c801000003
:020000040000fa
:04003400c8010000ff
:020000040000fa
:04003800c8010000fb
:020000040000fa
:04003c00c8010000f7
:020000040000fa
:04004000c8010000f3
:020000040000fa
:04004400c8010000ef
:020000040000fa
:04004800c8010000eb
:020000040000fa
:04004c00c8010000e7
:020000040000fa
:04005000c8010000e3
:020000040000fa
:04005400c8010000df
:020000040000fa
:04005800c8010000db
:020000040000fa
:04005c00c8010000d7
:020000040000fa
:04006000c8010000d3
:020000040000fa
:04006400c8010000cf
:020000040000fa
:04006800c8010000cb
:020000040000fa
:04006c00c8010000c7
:020000040000fa
:04007000c8010000c3
:020000040000fa
:04007400c8010000bf
:020000040000fa
:04007800c8010000bb
:020000040000fa
:04007c00c8010000b7
:020000040000fa
:04008000c8010000b3
:020000040000fa
:04008400c8010000af
:020000040000fa
:04008800c8010000ab
:020000040000fa
:04008c00c8010000a7
:020000040000fa
:04009000c8010000a3
:020000040000fa
:04009400c80100009f
:020000040000fa
:04009800c80100009b
:020000040000fa
:04009c00c801000097
:020000040000fa
:0400a000c801000093
:020000040000fa
:0400a400c80100008f
:020000040000fa
:0400a800c80100008b
:020000040000fa
:0400ac00c801000087
:020000040000fa
:0400b000c801000083
:020000040000fa
:0400b400c80100007f
:020000040000fa
:0400b800c80100007b
:020000040000fa
:0400bc00c801000077
:020000040000fa
:0400c000c801000073
:020000040000fa
:0400c400c80100006f
:020000040000fa
:0400c800c80100006b
:020000040000fa
:0400cc00c801000067
:020000040000fa
:0400d000c801000063
:020000040000fa
:0400d400c80100005f
:020000040000fa
:0400d800c80100005b
:020000040000fa
:04010800c80100002a
:020000040000fa
:04010c00c801000026
:020000040000fa
:04011000c801000022
:020000040000fa
:04011400c80100001e
:020000040000fa
:04011800c80100001a
:020000040000fa
:04011c00c801000016
:020000040000fa
:04012000c801000012
:020000040000fa
:04012400c80100000e
:020000040000fa
:04012800c80100000a
:020000040000fa
:04012c00c801000006
:020000040000fa
:04013000c801000002
:020000040000fa
:04013400c8010000fe
:020000040000fa
:04013800c8010000fa
:020000040000fa
:04013c00c8010000f6
:020000040000fa
:04014000c8010000f2
:020000040000fa
:04014400c8010000ee
:020000040000fa
:04014800c8010000ea
:020000040000fa
:04014c00c8010000e6
:020000040000fa
:04015000c8010000e2
:020000040000fa
:04015400c8010000de
:020000040000fa
:04015800c8010000da
:020000040000fa
:04015c00c8010000d6
:020000040000fa
:04016000c8010000d2
:020000040000fa
:04016400c8010000ce
:020000040000fa
:04016800c8010000ca
:020000040000fa
:04016c00c8010000c6
:020000040000fa
:04017000c8010000c2
:020000040000fa
:04017400c8010000be
:020000040000fa
:04017800c8010000ba
:020000040000fa
:04017c00c8010000b6
:020000040000fa
:04018000c8010000b2
:020000040000fa
:04018400c8010000ae
:020000040000fa
:04018800c8010000aa
:020000040000fa
:04018c00c8010000a6
:020000040000fa
:04019000c8010000a2
:020000040000fa
:04019400c80100009e
:020000040000fa
:04019800c80100009a
:020000040000fa
:04019c00c801000096
:020000040000fa
:0401a000c801000092
:020000040000fa
:0401a400c80100008e
:020000040000fa
:0401a800c80100008a
:020000040000fa
:0401ac00c801000086
:020000040000fa
:0401b000c801000082
:020000040000fa
:0401b400c80100007e
:020000040000fa
:0401b800c80100007a
:020000040000fa
:0401bc00c801000076
:020000040000fa
:0401c000c801000072
:020000040000fa
:0401c400c80100006e
:020000040000fa
:0401c800c80100006a
:020000040000fa
:0401cc00c801000066
:020000040000fa
:0401d000c801000062
:020000040000fa
:0401d400c80100005e
:020000040000fa
:0401d800c80100005a
:020000040000fa
:100200000f8020000eff20000e018800000000007b
:10021000000020000000e000020032000001200089
:1002200020028800140007005b0007000000e000c7
:1002300003003a0000002000010020000200370007
:100240000000200001002000810f7000010032003a
:1002500014000700000020000000e000020032004f
:100260000000020000000000200402000000000066
:100270000040da000000fe004440a9000000200019
:100280000000e0000300320000002000a001880010
:100290004440a800000006008a1f78008b1f7800e9
:1002a0000000060091018800800478000000eb0047
:1002b0001a003700e284440032a0b4009905ba0065
:1002c000e284440032a0b4009906ba00e2844400fb
:1002d00032a0b4000006eb00476fde00fd07b2005d
:1002e000636ce10003003a00ebff07000000eb0045
:1002f0000a003700606ce10004003a00005deb008a
:100300008b05e900fdff3e00040037006168e10055
:10031000010032000086eb000b00070019c7ba008d
:100320001905ba000e04e00003003a000a00e000dc
:10033000e0ff3a0000000600fe07b2009e018800c0
:100340008a047800f5ff3700395dba008b05e900b3
:100350000c003200295dba008b05e900080032006c
:100360000c00e00003003a00e284440032a0b40034
:10037000f5ff370019ddba008b05e900faff3a00f6
:100380008904e800e184440032a0b40000000600c3
:0c0390000040da000000fe000000050044
:020000040000fa
:10039c000e00fa00889fbe008a9fbe00400798009e
:1003ac0051079800620798004e009000cf80de0045
:1003bc00327320000289b900020178006005b9008f
:1003cc008a01780003014100337320000300b80058
:1003dc000101410082007800008fbe00008fbe003a
:1003ec001e01be002207980033079800f0ff2f0073
:1003fc00010020001e01be00800f5100818f5900aa
:10040c0008003c006e0090008000eb0001087800b2
:10041c009e0078005e009000010878000000eb0060
:10042c004f0037002e009000be009000e00f5000ef
:10043c00e08f580002003d0067004000e08048005b
:10044c00cd09dd004304de0008847100c38cde009e
:10045c00088fbe00f0ff2f00010020001e01be001f
:10046c00800f5100818f590008003c006e009000f5
:10047c0011002000010878009e0078005e009000ba
:10048c00010878000000eb00350037002e009000ca
:10049c00be009000e00f5000e08f580002003d00bd
:1004ac00f003b0000180b0004a09dd004603de0015
:1004bc0006037100c68bde00068fbe00f0ff2f0016
:1004cc00010020001e01be00800f5100818f5900d9
:1004dc0008003c006e00900021002000010878000c
:1004ec009e0078005e009000010878000000eb0090
:1004fc001b0037002e009000be009000e00f500053
:10050c00e08f580002003d00f00fb0000180b000f9
:10051c00c809dd004802de0004827100c88ade00d2
:10052c00048fbe00f0ff2f00010020001e01be0052
:10053c00800f5100818f590008003c006e00900024
:10054c0031002000010878009e0078005e009000c9
:10055c00010878000000eb000100370010002000bb
:10056c004f05be004f04be000080fa0000000600dc
:10057c000c00fa0040079800510798004e009000bc
:10058c00e10f500003003200e20f50002100320056
:10059c00420037000e80e800000178008e007800e1
:1005ac005e0090007aff07001e007800100888009b
:1005bc001e00900000407800634060000080fb004b
:1005cc00630060004400dd0022088000f1fc2f0075
:1005dc008100610001007000200888000421a9003e
:1005ec0004c1a90005e1a9008460a9000021ef0065
:1005fc0005e1a800000000002004800068006000f5
:10060c000000e000fcff32008460a90005e1a900b5
:10061c0022003700e6004700640047000101780023
:10062c00800078005e00900059ff07002e009000bb
:10063c00600888003e009000004078006340600035
:10064c000080fb00630060004400dd008208800035
:10065c00f1fc2f008100610001007000800888000f
:10066c001021a90010c1a90011e1a90084c0a900a2
:10067c000621ef0011e1a800000000002104800019
:10068c0000042000008060000000e000fbff32004e
:10069c0084c0a90011e1a900000000000000eb00db
:1006ac000080fa00000006000c00fa0040079800d9
:1006bc00510798004e009000e10f500003003200eb
:1006cc00e20f5000180032002f0037000e80e800b7
:1006dc00000178008e0078005e0090002cff07006f
:1006ec001e007800100888001e0090000040780062
:1006fc00634060000080fb00630060004400dd008c
:10070c0022088000f1fc2f008100610001007000c4
:10071c00200888000421a90004c1a9000021ef00d1
:10072c0005e1a80018003700e60047006400470008
:10073c0001017800800078005e00900014ff070033
:10074c002e009000600888003e0090000040780069
:10075c00634060000080fb00630060004400dd002b
:10076c0082088000f1fc2f00810061000100700004
:10077c00800888001021a90010c1a9000621ef00f3
:10078c0011e1a800000000000080fa000000060043
:10079c000200fa00000f78001e007800e10f5000f4
:1007ac0003003200e20f50000f0032001e00370031
:1007bc0020048000680060000000e00003003200ac
:1007cc008460a90010002000180037000000000011
:1007dc0020048000680060000000e000fcff320094
:1007ec008460a90010003700210480000004200060
:1007fc00008060000000e0000300320084c0a9000b
:10080c0010002000090037000000000021048000c7
:10081c0000042000008060000000e000fbff3200bc
:10082c0084c0a900000000000000eb000080fa006a
:10083c00000006000000fa00030007000000eb00b7
:10084c000080fa00000006000000fa00a100200061
:10085c001000200094ff0700200480006800600056
:10086c000000e000030032008460a90010002000aa
:10087c000b00370071002000100020003cff070027
:10088c000000000020048000680060000000e00010
:10089c00fcff32008460a900ebff07000000eb00b6
:0808ac000080fa0000000600c4
:00000001FF
