:020000040000fa
:080000000001040000000000f3
:020000040000fa
:04000800a002000052
:020000040000fa
:04000c00a00200004e
:020000040000fa
:04001000a00200004a
:020000040000fa
:04001400a002000046
:020000040000fa
:04001800a002000042
:020000040000fa
:04001c00a00200003e
:020000040000fa
:04002000a00200003a
:020000040000fa
:04002400a002000036
:020000040000fa
:040028004e02000084
:020000040000fa
:04002c00a00200002e
:020000040000fa
:04003000a00200002a
:020000040000fa
:04003400a002000026
:020000040000fa
:04003800a002000022
:020000040000fa
:04003c00a00200001e
:020000040000fa
:04004000a00200001a
:020000040000fa
:04004400a002000016
:020000040000fa
:04004800a002000012
:020000040000fa
:04004c00a00200000e
:020000040000fa
:04005000a00200000a
:020000040000fa
:04005400a002000006
:020000040000fa
:04005800a002000002
:020000040000fa
:04005c00a0020000fe
:020000040000fa
:04006000a0020000fa
:020000040000fa
:04006400a0020000f6
:020000040000fa
:040068007e02000014
:020000040000fa
:04006c00a0020000ee
:020000040000fa
:04007000a0020000ea
:020000040000fa
:04007400a0020000e6
:020000040000fa
:04007800a0020000e2
:020000040000fa
:04007c00a0020000de
:020000040000fa
:04008000a0020000da
:020000040000fa
:04008400a0020000d6
:020000040000fa
:04008800dc01000097
:020000040000fa
:04008c00140200005a
:020000040000fa
:04009000a0020000ca
:020000040000fa
:04009400a0020000c6
:020000040000fa
:04009800a0020000c2
:020000040000fa
:04009c00a0020000be
:020000040000fa
:0400a000a0020000ba
:020000040000fa
:0400a400a0020000b6
:020000040000fa
:0400a800a0020000b2
:020000040000fa
:0400ac00a0020000ae
:020000040000fa
:0400b000a0020000aa
:020000040000fa
:0400b400a0020000a6
:020000040000fa
:0400b800a0020000a2
:020000040000fa
:0400bc00a00200009e
:020000040000fa
:0400c000a00200009a
:020000040000fa
:0400c400a002000096
:020000040000fa
:0400c800a002000092
:020000040000fa
:0400cc00a00200008e
:020000040000fa
:0400d000a00200008a
:020000040000fa
:0400d400a002000086
:020000040000fa
:0400d800a002000082
:020000040000fa
:04010800a002000051
:020000040000fa
:04010c00a00200004d
:020000040000fa
:04011000a002000049
:020000040000fa
:04011400a002000045
:020000040000fa
:04011800a002000041
:020000040000fa
:04011c00a00200003d
:020000040000fa
:04012000a002000039
:020000040000fa
:04012400a002000035
:020000040000fa
:040128004e02000083
:020000040000fa
:04012c00a00200002d
:020000040000fa
:04013000a002000029
:020000040000fa
:04013400a002000025
:020000040000fa
:04013800a002000021
:020000040000fa
:04013c00a00200001d
:020000040000fa
:04014000a002000019
:020000040000fa
:04014400a002000015
:020000040000fa
:04014800a002000011
:020000040000fa
:04014c00a00200000d
:020000040000fa
:04015000a002000009
:020000040000fa
:04015400a002000005
:020000040000fa
:04015800a002000001
:020000040000fa
:04015c00a0020000fd
:020000040000fa
:04016000a0020000f9
:020000040000fa
:04016400a0020000f5
:020000040000fa
:040168007e02000013
:020000040000fa
:04016c00a0020000ed
:020000040000fa
:04017000a0020000e9
:020000040000fa
:04017400a0020000e5
:020000040000fa
:04017800a0020000e1
:020000040000fa
:04017c00a0020000dd
:020000040000fa
:04018000a0020000d9
:020000040000fa
:04018400a0020000d5
:020000040000fa
:04018800dc01000096
:020000040000fa
:04018c001402000059
:020000040000fa
:04019000a0020000c9
:020000040000fa
:04019400a0020000c5
:020000040000fa
:04019800a0020000c1
:020000040000fa
:04019c00a0020000bd
:020000040000fa
:0401a000a0020000b9
:020000040000fa
:0401a400a0020000b5
:020000040000fa
:0401a800a0020000b1
:020000040000fa
:0401ac00a0020000ad
:020000040000fa
:0401b000a0020000a9
:020000040000fa
:0401b400a0020000a5
:020000040000fa
:0401b800a0020000a1
:020000040000fa
:0401bc00a00200009d
:020000040000fa
:0401c000a002000099
:020000040000fa
:0401c400a002000095
:020000040000fa
:0401c800a002000091
:020000040000fa
:0401cc00a00200008d
:020000040000fa
:0401d000a002000089
:020000040000fa
:0401d400a002000085
:020000040000fa
:0401d800a002000081
:020000040000fa
:10020000ef9520000eff20000e0188000000000086
:10021000000020000000e000020032000001200089
:1002200020028800140007003c0107000000e000e5
:1002300003003a00e07422000100200002003700b1
:100240000000200001002000810f7000010032003a
:1002500014000700000020000000e000020032004f
:100260000000020000000000c41c020000000000aa
:100270000040da000000fe004440a900e004200035
:100280000000e0000300320000002000a001880010
:100290004440a800000006008a1f78008b1f7800e9
:1002a0000000060091018800800478000000eb0047
:1002b0001a003700e284440032a0b4009905ba0065
:1002c000e284440032a0b4009906ba00e2844400fb
:1002d00032a0b4000006eb00476fde00fd07b2005d
:1002e000636ce10003003a00ebff07000000eb0045
:1002f0000a003700606ce10004003a00005deb008a
:100300008b05e900fdff3e00040037006168e10055
:10031000010032000086eb000b00070019c7ba008d
:100320001905ba000e04e00003003a000a00e000dc
:10033000e0ff3a0000000600fe07b2009e018800c0
:100340008a047800f5ff3700395dba008b05e900b3
:100350000c003200295dba008b05e900080032006c
:100360000c00e00003003a00e284440032a0b40034
:10037000f5ff370019ddba008b05e900faff3a00f6
:100380008904e800e184440032a0b40000000600c3
:10039000000000000000000000000000000000005d
:1003a000000000000000000000000000000000004d
:1003b00000000000000000003600f800809fbe0032
:1003c000829fbe00849fbe00869fbe003400f8005e
:1003d00000002000a00188000000fa008700a900aa
:1003e00005003700e0108000004078008040780071
:1003f000e0802000580a0700c01080006100600003
:100400000000e000f7ff3a000080fa003400f90035
:100410004f03be004f02be004f01be004f00be00a2
:100420003600f900004006003600f800809fbe004c
:10043000829fbe00849fbe00869fbe003400f800ed
:1004400000002000a00188000400fa008720a90015
:100450000e80e80080007800e08420005e0a07003b
:10046000000f78001e0078000000e00003003a0052
:100470002e4090000000fb00d01088000080fa00a1
:100480003400f9004f03be004f02be004f01be0012
:100490004f00be003600f90000400600809fbe00fd
:1004a0003400f80000002000a00188000000fa00dd
:1004b0008400a90010002000304088000c28ef00c4
:1004c0000a28ef00210e8000400620000088b900b5
:1004d00000007800b00e8800210e80004006200049
:1004e0000088b90000007800c00e88000080fa0083
:1004f0003400f9004f00be0000400600801f780065
:100500003400f80000002000a00188000000fa007c
:100510008600a900404080000000e00003003a008f
:100520001000200040408800010037000828ef003c
:100530000080fa003400f9004f0078000040060007
:100540000040da000000fe000a00fa00110020005e
:10055000b1bf9f00c0bf9f006a8057006f080700af
:100560004fb897000080fa00000006000a00fa0069
:10057000e20f500034003e00d04a8000e10f5000ee
:1005800003003200e20f500011003a000c00370067
:10059000c32020000300e00001003a000040da0020
:1005a0000c02e200020035001422ef000de2a80068
:1005b0000f42ab000d003a000f42a8000b003700bd
:1005c000632120000300e00001003a000040da004f
:1005d0001602e200020035001e22ef0017e2a8001a
:1005e0001942ab0001003a001942a80082017800cc
:1005f0000b0037003102fb00e10f500004003a000d
:100600000f22ab00feff3a00841088000300370081
:100610001922ab00feff3a00d41088008301e900e4
:100620000300e000f3ff3a00e10f500003003a003e
:100630000f02ab00feff32000b0037001902ab00c7
:10064000feff32000800370033002000b3bf9f00d8
:10065000c0bf9f00d1bf9f00e2bf9f006a805700cc
:10066000300807006fb99700020078000080fa0098
:10067000000006000a00fa0051002000b1bf9f00f0
:10068000c0bf9f006a805700280807005fb8970026
:100690000080fa0000000600889fbe0080047800f9
:1006a000e04a80000000e00004003a000e0007006d
:1006b0000084eb000000e00008003500e84a8000fc
:1006c0000900e000050032000900440006000700b0
:1006d0000000e00001003d000084eb00080078000d
:1006e0004f04be0000000600800078000100e0001a
:1006f00003003a0000002000e04a880000000500e6
:100700000080eb0002002000828f500002003e00bb
:10071000e14a88000000eb00000006000000050030
:1007200003f0a200889fbe008a9fbe008c1f780045
:100730001b010700220133006450e1004f0032002a
:100740006420e1005200320003826c0007003b008d
:100750000905d0000306d000820f54000c065d008e
:100760000200390002003200890178000306780097
:100770008582550004003d000003fd008103fd005b
:100780008502ea008b854200840f720002003b0064
:1007900060001000e08018006011b8000005eb0058
:1007a0007a28e1000a00390006007800c75ddd0004
:1007b000f707b200878075002d0037008281710035
:1007c0000a017800610560008180d1000080d300bb
:1007d0008502e900f9ff3b000604400087844800d9
:1007e00002003b0060041400e0841c000988a300a0
:1007f000070032008a81710082817100610164000a
:100800008904d1000884d3008b05e8001700370065
:100810000978a30013003a000b00e0001300340035
:100820008b05e9000804440089844c000a447400e4
:100830000978a3000d003a000b00e0000700340027
:100840008b05e9000804440089844c0001003a004b
:100850000b0020000978a300f7ff32000001eb0035
:1008600002003700828171000a01780091000700c0
:100870000cf0a70001f0a000da0037006420e100ce
:1008800002003a00838f6c00da0033000801be00da
:100890000200be00d3003700889fbe008a9fbe00c2
:1008a0008c1f7800be000700c500330003866c0073
:1008b0006450e1002e0032006420e1003300320079
:1008c0006150e1002f0032006120e1003100320070
:1008d00085855500eb07b0000900200008042000c2
:1008e000050037000804440089844c000a003100e8
:1008f0000603430087834b000001530081815b00a6
:10090000f8ff33000203be000800a0000804440002
:1009100089844c00f6ff3900c639dd00830173007d
:1009200001003200130020008904d1000884d300a4
:100930000998a300050032000800a7000300a000ea
:100940008904d1000884d3008b05e8008904d10014
:100950000884d3000001eb000281d200550007009b
:1009600001f0a1000cf0a70001f0a0009d003700ed
:100970006420e1009f0032000801be000200be00ba
:10098000f7ff37006120e1009a0032006000b800f4
:10099000f3ff37000000200001f82700f0ff3700c8
:1009a00014002000ca003700f4ff2f00c8003700f1
:1009b0000001be00650007000470a70003f0a1005d
:1009c0006509b100160032000d0035006828e1000d
:1009d00006003500f0ff2f00f1ff27000300e000c4
:1009e00013003b000100280000000500000040004b
:1009f000818048008502e900fcff3a0008003700ca
:100a0000f88f420002003c008000eb00000005006f
:100a10008100d1000080d3008502e800fcff3a008d
:100a20000300e00002003b0060001000e0801800be
:100a3000000006000001be00440007000470a7008b
:100a400003f0a10003f8a30013003a006509b10008
:100a500010003200090035006928e100020035006d
:100a600001002800000005000000400081804800cf
:100a70008502e900fcff3a0000000600f88f420002
:100a8000050035008100d1000080d3008502e80018
:100a9000fcff3a00000006008000eb0000000500ab
:100aa0004f89de0082017800a40037006011b80091
:100ab000b200370081002000618055000b003d002e
:100ac0000b00200061fe2f000100e1001d0034003a
:100ad00082817100610164008904d1000884d3001f
:100ae0000000e800faff3a00710020006100640095
:100af000030070000200600009003200610444003d
:100b0000e0844c000988a500050032008b05e80050
:100b10006808e10002003a008904d1000884d3008b
:100b2000f20f20000258e10005003d00c75ddd0026
:100b3000f907b200898075000800780000000600ff
:100b40000bf827008b00780000000500c70ade00c4
:100b5000f107b200f50fb20008003200e1cf420009
:100b6000020032000170a00024000500810f700017
:100b7000010032000408050044000500810f7000e8
:100b800002003a00140005008502e9000000400060
:100b900081c04800fcff3b000170a000240005005c
:100ba0000004be00e9ff07000003be000405be000c
:100bb0000200be00e5ff0700844f7500000006003c
:100bc0000200be006450e100050036006420e10030
:100bd000020036000968a30001003a000800be00c8
:100be0000160a0004f0678004f05be004f04be0014
:100bf00000000600f0ff2f00f1ff2700f9ff37008b
:100c0000889fbe008a9fbe008c1f7800e4ff07000b
:100c1000ebff330003866c006450e10024003200d7
:100c20006420e100270032006150e1002200320020
:100c30006120e100210032008b854200eb07b1000a
:100c40000134b800003ab8000804420089844a0020
:100c5000013ab8000030b8008880400009014a001d
:100c60000400330000004000818048000201490078
:100c70008b05e900c909dd00830170000100320025
:100c800013002000c814de004814dd004709de0010
:100c90001200b200c808de000884700085ff07005b
:100ca00001f0a1000cf0a70001f0a000cdff37007b
:100cb0006120e100cfff32000801be000200be004b
:100cc000f7ff37006150e100fcff3a00c9ff370031
:100cd000889fbe008a9fbe00841f7800b0ff070077
:100ce0004f00780011003300f0ff2f00838f6c005d
:100cf00006003b00040565000a00a7000800370055
:100d000009f0a6001000200008003700820f5400f0
:100d1000838f5c00030039001000200001003e00ba
:100d20000000200009f0a7000000ea004f05be0007
:100d30004f04be000000e00000000600881f78009d
:100d4000030478000300e00007003d00600010008d
:100d5000e080180060011900e081190002003b00ea
:100d600001f02d00030037000400070008f0a70081
:100d700001f0a0004f04780000000600889fbe002c
:100d80008a9fbe000082700004027100048271001c
:100d9000260032000004be000200be006011b80050
:100da0006b092000950220000182cf000a00390063
:100db0000541b1000082cf00070039000541b100b4
:100dc0000982cf00040039000541b1000882cf003c
:100dd000010039000541b100054252001200320005
:100de0000a003b0082817100610164008100d10032
:100df0000080d3008984d3000884d3008b05e800e9
:100e00000442e800f7ff3a000700370008044400f6
:100e100089844c0000004800818048008b05e9006f
:100e20000442e900f9ff3a0022ff07004f05be0027
:100e30004f04be0000000600800178000200370069
:100e4000b15978000201e9000200e000fcff3a001d
:100e50000000060000017800820178003204e00002
:100e6000fdff3a0003017800b14178000359780092
:100e70000304e000fcff3a00000006000200370017
:100e80000204e0000b0032008101780000027800cb
:100e900030417800b14f5100f9ff320010002000be
:100ea00014427800934f5200030031000080eb00a1
:100eb000000006000000eb00000006008000780043
:100ec000010178003104e000fdff3a00000051000c
:100ed00000000600889fbe00800478000203be0068
:100ee000010478006149b800898fd2008381d20063
:100ef000080278000600be000e06070008804400c5
:100f00004f04be0000000600881f7800020478002d
:100f100008017800c8ff0700080040004f0478006f
:100f2000000006000000fa00881f78000004780026
:100f30006a825700bfb9970008017800a1762000a7
:100f400040782000160007000000e0000200350095
:100f50008040eb00017478004f0478000080fa00b4
:100f600000000600889fbe00000478000203be0057
:100f700081047800080278008901780012002000be
:100f80000600be00ef030700890f50000100320089
:100f90000004eb00080078004f04be0000000600cb
:100fa0006800fa00889fbe008a9fbe008004780017
:100fb0000104780082057800030578008400780039
:100fc00000f92f000f004000dc030700d98f9f00bd
:100fd000fb8f9f000000eb00a09f9f00e88f9f0009
:100fe0009a84fb000904fb008904ea00cf4cde0070
:100ff00050022000800f54000d003200e18f540099
:101000000b003a00090178008a0078007f88970079
:10101000df89970003000100f08f9f000000e000cf
:10102000950032002f9897000000e800a09f9f00d5
:101030000905450050022000800f540004003200d2
:101040000800e000e6ff3a002f9897008b00370079
:101050000000eb00809f9f00f0979f00e0979f00ab
:10106000d0979f00c0979f00b0979f000700370060
:10107000c1942000010050000000400001942000b5
:1010800061007800cf98970001007000c09f9f001a
:101090000a04780008057800ba4478008900fb004b
:1010a000c0942000900107000000e000f0ff3a002b
:1010b000a1c2b30081cf54000e003a008f88970080
:1010c0000180e900808f9f0010007800b09f9f0092
:1010d0000000e00005003d000000ea00b09f9f0016
:1010e0004f9897000020a000c09f9f000804e800d0
:1010f00010003700b09f9f00880078000000eb00d0
:1011000005003700f3ff2700830f50000200320074
:101110006a02b900040041000104780088007800e8
:101120003101fb000203b100e90f5100f5ff360069
:10113000b09f9f00e0c2b300984f10000200320041
:101140000080eb0019003700a0c2b300d84f100098
:1011500007003a008f8897000180e900808f9f0088
:1011600010007800909f9f000804e80010003700ee
:101170000000eb00909f9f0088007800050037007a
:10118000f3ff2700830f5000020032006a02b9000b
:101190000400410001047800880078003101fb0060
:1011a0000203b100e90f5100f5ff3600909f9f0048
:1011b000984478008900fb00809320004a010700d2
:1011c0000000e000020032000804e80001003700df
:1011d0008044eb00a97f9f0080c6b30080cf5400fd
:1011e00006003a0098cf140010003a006640500004
:1011f000a07f9f000804e8000c003700c0c6b300c1
:1012000080cf540009003a0098cf140007003a003c
:1012100067404000d84f100002003a006e40500076
:101220000100370010c7b300a07f9f001801fb002a
:10123000c3fb2f008f81410001f92f008f804000f8
:1012400020f92f000f004000150007000000e0000b
:1012500009003a00c1fb2f008f80400020f92f00c9
:101260000f0040005b0207000000e00002003500b4
:101270000805e8005aff37000080eb004f05be006c
:101280004f04be000080fa00000006000302780050
:101290008201780001017800217b200040ff3700a7
:1012a000889fbe008a9fbe00e4c6b300844f5100f1
:1012b000be00320010003c006b425200844f5100cf
:1012c0001800320005003c0054c2b300844f5100a6
:1012d000f600320084c5b3000f00370044c6b300e7
:1012e000844f51001400320065424200844f510087
:1012f000f1003a001000370004c7b300844f5100da
:10130000dd0032005600350065424200844f510036
:101310005300320063424200844f5100e6003a001d
:101320004f0037001181e90082087800a008900082
:1013300012417800de003700006a9000c5c6b30095
:10134000854f520007003a009102780064825200f3
:10135000840878001402be004fabde0086037800dc
:101360001400370015c7b300854f520003003a0040
:10137000110478006802540005003700a5c6b300c8
:10138000854f520006003a009104780068825400ac
:10139000840878005403be004402be0005003700f4
:1013a0001182e9008408780014027800cfa2de00e0
:1013b000612bb9000498be000690be0080689000c2
:1013c00088c6b30088cf50000d00320028c6b30095
:1013d00088cf500004003a000402fb00cfa2de00d8
:1013e000612bb9000800370048c7b30088cf500010
:1013f000030032006644440088cf500004003a00e5
:10140000cfa2de00612bb9000498be000690be009a
:101410003002be002003be00a0089000e00f520082
:10142000e08f5a00e00f5b00e08f5b0002003d00a0
:10143000d4c2b30008003700301290000418a30093
:1014400002003200b4c2b300030037000408a30056
:101450005100320004c2b30084f178004c00370020
:10146000006a9000c5c6b300854f520008003a00dc
:101470001105780064025500840878001404be0049
:101480006055b8000802be000a03be001400370011
:1014900015c7b300854f520003003a00910478004d
:1014a0006882540005003700a5c6b300854f52007e
:1014b00006003a001105780068025500840878009b
:1014c0005403be004402be00050037001182e9004b
:1014d00084087800140278008002eb006033b800c2
:1014e0000498be000690be008068900088c6b300d5
:1014f00088cf50000d00320028c6b30088cf5000be
:1015000004003a000482fb008002eb006033b80064
:101510000800370048c7b30088cf500003003200ee
:101520006644440088cf500004003a008002eb007b
:101530006033b8000498be000690be00b010900062
:101540000138a300140032003002be002003be00a8
:10155000e00f5200e08f5a00e00f5b00e08f5b006d
:101560000d00320081c7b300814f510003003200eb
:1015700081c5b300814f510007003a00a0089000d8
:1015800004c3b30084f178008100e80082f17800a0
:101590008100e80021089800a008900081814100a6
:1015a00073009800824078003e0037008069900008
:1015b000c4c6b3001181e90084cf5100220032007b
:1015c0000a003c006442520084cf510025003200e2
:1015d00004c2e80084cf5100130032006842520078
:1015e00084cf51001e003a000a00370044c7b30000
:1015f00084cf51001b0032006642420084cf51006c
:10160000180032006942520084cf510014003a00a1
:101610000500370082087800920078002060900072
:10162000804878002c00370082087800920078000b
:1016300010129000cfa2de00612bb9008498be008a
:101640008690be002400370082087800920078005f
:1016500010119000cf91de008288be001e0037007e
:101660001181e90082087800920078001010900043
:1016700080087800180037001181e900820878009e
:1016800012027800cfa2de00612bb9000498be00e0
:101690000690be00a0089000818141007300980070
:1016a00081c7b3001c0007000b003700a0089000a2
:1016b00082f1780006003700a00890008181410087
:1016c0000204e00001003a0052c2b30082497800ef
:1016d0008100e800210898000000eb004f05be00e3
:1016e0004f04be0000000600020037000304e000c3
:1016f000060032000001780002007800b041780056
:1017000081cf5100f9ff3a00010037000001eb00e2
:101710000200780000000600fc874700889fbe009a
:101720008a9fbe008c9fbe008e1f78000006780046
:1017300080c5b30080cf50000a00320077404000df
:1017400080cf50000a0032006940400080cf500036
:101750000b0032007092200080bf9f00ae0020007e
:101760000a0037006291200082bf9f000600370008
:101770007392200083bf9f008e002000030037007b
:101780007492200084bf9f000e0120003c02be0026
:101790002c03be000605be000404be0040c6b30014
:1017a00080cf5000030032006540400080cf5000e1
:1017b0000b003a00e00f5200e08f5a00e00f5b0090
:1017c000e08f5b0006003d006000b8006011b800cb
:1017d0000404500085845800060559008785590087
:1017e000e80f57000400320040002000f00f5700bf
:1017f00038003a000100370030002000e00f5400ac
:10180000e08f5c00e00f5d00e08f5d0004003a00b7
:101810008c1090008d0120000100e00006003200d5
:101820008e00e900888060008fba9700e5c07800dc
:10183000f1ef9f007d012000800078008100e90029
:10184000050033008b05d1000a85d3008984d300bd
:101850000884d300f9ff3700089ebe000a96be0038
:10186000120037008d06e9008e00e90084806000d8
:101870000fb99700e2c1780082fd2f000f014100ef
:1018800003f17e00800078008100e900050033004c
:101890008783d1000683d3008582d3000482d300de
:1018a000f9ff3700049ebe000696be003c02be0053
:1018b0002c03be00e00f5200e08f5a00e00f5b00e7
:1018c000e08f5b008b0034000d00e000e5ff3c0082
:1018d000880037000c68900081c6b300814f50002b
:1018e0000b00320006003c000004e000080032005b
:1018f000e6c05000814f50004e003a00040037000f
:10190000c1c6b300814f50004a003a0021003700a1
:101910000800e00004003a000c1090008d01200047
:101920000000e00006003200110009000e84d8001b
:101930000fb99700e2c07800f1ef9f007d01200011
:10194000110009000e84d8000a00370011000900b8
:101950000e04d8008d06e9000e81b900020454007f
:101960008fb8970061417c0081fd2f008f8040007f
:1019700082f07e00000478000800e00002003200df
:101980000d00e000f1ff3c00cfc4de00614db90066
:1019900025003700e00f5400e08f5c0004003a009f
:1019a0000c1090008d0120000000e00007003200c4
:1019b0006171b9000800be00b50307008fb9970038
:1019c000e3417800f3ef9f007d0120006171b900d1
:1019d0000800be009e0307000b0037006171b900cc
:1019e0000800be008b0307008d06e90000f1b90076
:1019f000020454000fba9700e4427c0084fd2f00db
:101a00000f02420005f27e000004be00e00f50000d
:101a1000e08f5800020032000d00e000efff3c00b4
:101a20004fcdde008a057800089ebe000a96be00f3
:101a300030003700e00f5400e08f5c00e00f5d00e5
:101a4000e08f5d0004003a000c1090008d01200032
:101a50000000e000090032006172b900612bb9009a
:101a60000800be000a01be00320407000fba97004a
:101a700064427800f4ef9f007d0120006172b9009c
:101a8000612bb9000800be000a01be002204070055
:101a90000d0037006172b900612bb9000800be006b
:101aa0000a01be00270407008d06e90000f2b90014
:101ab000040454008fba970065427c0085fd2f0016
:101ac0008f82420084f27e00009ebe000296be001d
:101ad0003c04be002c05be00e00f5400e08f5c000b
:101ae000e00f5d00e08f5d00020034000d00e000bb
:101af000e8ff3c00e80f570010003a003c1090004f
:101b00000038a3000d003200f78f560006003e009b
:101b100085fd2f008f824200e5c07e0000c3b30028
:101b200080cf5000050032008d06e90002c3b300eb
:101b300081fd2f008f80400082f07e0078811600aa
:101b4000420e98007c00900083fd2f008f814100a1
:101b50008d804100b8fc07004c0890008c1090006c
:101b6000810f500006003d0000805000300e9800ac
:101b70003c1090000040a100301698000f00370084
:101b80000100e0000d003d00bc109000f4806000fa
:101b9000f08f500009003a002c119000ac08900022
:101ba000810051003c09900082805000008050006c
:101bb0004240a90001003400300e98004f07780021
:101bc0004f06be004f05be004f04be00cf01b1005e
:101bd000000006000400fa00889fbe008a9fbe0035
:101be0008c1f78000004780001067800a81490008b
:101bf00028089000808454003808900080845400a5
:101c00004808900080845400580890008084540054
:101c10006808900080845400780890008084540004
:101c20000002220090bf9f0000032300a0bf9f007e
:101c3000381090000028a30015003a000900e000c9
:101c400013003400090578008a057800e20f55007a
:101c5000010036002b002000c80190000b01780025
:101c6000ee805700680090000300010060049800b7
:101c70000000e000aa003200181090000b004000a5
:101c8000101498000b0555004240a900eeff3c00df
:101c9000280990000200e0000c003400c801900008
:101ca0008c00780068009000030001006004980038
:101cb0008080eb000000e0009a0032009810900055
:101cc000280890000080400010149800380d900003
:101cd0000a00e000110034008a057800e20f550088
:101ce000010036002b002000c80190000b01780095
:101cf000ec80570068009000030001006004980029
:101d00000000e00086003200181090000b00400038
:101d1000101498000b055500edff3700086990007e
:101d2000c808900050c6b300804f510008003a0028
:101d30000100e000150034005802900008099000ee
:101d40009809900068009000040001000700370027
:101d50000100e0000d003400c8019000010178008e
:101d6000f8009000680090000300010060049800f3
:101d70008080eb000000e0006a00320098109000c4
:101d8000480890000080400010149800580d900002
:101d90000a00e000110034008a057800e20f5500c7
:101da000010036002b002000c80190000b017800d4
:101db000ec80570068009000030001006004980068
:101dc0000000e00056003200181090000b004000a8
:101dd000101498000b055500edff370008699000be
:101de0006808900051c6b300814f51000d003a00c1
:101df0000000e0001c00340078019000c80890004a
:101e0000010141006111b800828fd2008381d200ac
:101e100058029000800078006800900004000100e3
:101e2000090037000000e0000f0034007801900046
:101e3000c808900081004100c801900000017800ae
:101e40006800900003000100600498008080eb00af
:101e50000000e00033003200981090006808900005
:101e60000080400010149800780d90000a00e000f7
:101e7000110034008a057800e20f55000100360099
:101e80002b002000c80190000b017800ec80570067
:101e90006800900003000100600498000000e0006a
:101ea0001f003200181090000b0040001014980022
:101eb0000b055500edff3700381090008000eb0057
:101ec0000028a300170032000900e00015003400cc
:101ed00009057800e28f5400010036002a00200036
:101ee000c80190000a017800ee8057006800900059
:101ef00003000100600498000000e00008003200c8
:101f0000181090000a004000101498008a845400b1
:101f10004240a900eeff3c008000eb0001003700ca
:101f20008080eb00010078004f0678004f05be006e
:101f30004f04be000080fa0000000600010878008f
:101f400000000600e6874700889fbe008a9fbe000b
:101f50008c9fbe008e1f780082bf9f000404780013
:101f6000029ab900f4b79f000400e0005900320063
:101f70000fb997000200e000570032000006be00d3
:101f800004077800c800900068009000808f50001f
:101f90000400390008007800910007000000e0000c
:101fa0003b00350000402000180060000a003200ad
:101fb0008e017800a20020000c00be00fa0107008c
:101fc0000005be0000807500070032008c0455003b
:101fd0008904e800050037008e0478000a0020001c
:101fe0000b002000010037008e04780048019000ab
:101ff0006800900002005000890f5000030031007b
:10200000800478000a0020000b0020006111b80055
:10201000828fd2008381d200090278000c00be00ba
:10202000c40107000907570048009000090040005c
:10203000400498000a85750004003200080078000a
:102040002c0007000000e00011003a000e00e00044
:102050000f0032006148b800808fd2008180d2002a
:102060000000780000f0a1008c01d0000001d00039
:10207000028641004220a80081864e004200a9004d
:102080004220ae004200a8000c86d300bdff3700fe
:102090000080200018006000020032000800780074
:1020a0001400070000c02000180060000200320089
:1020b000c8019000630498007fb097000e0750009d
:1020c0000fb99700110009000287d800800178003d
:1020d000010037008001eb00030078004f07780013
:1020e0004f06be004f05be004f04be006f00b1009a
:1020f00000000600889fbe00000478000800e00091
:102100000f003a008004eb00090478008800d0003a
:1021100060902000610078000000e00004003200c0
:10212000f4ff07000000e00001003d008084eb00a8
:102130000804e800e80f5400f4ff3a0025003700d7
:1021400000002200180060008004eb002100320033
:10215000a80490000f00370009015100384090009a
:102160000000fb008900780000f907000000e00093
:1021700007003c002800900040049800600498008c
:10218000500c98001890a0008084eb0011003700dc
:102190008084440048019000828f5400eeff390093
:1021a00028009000400498009800780002c02000a9
:1021b0000281600001003a003800900001e8a300ad
:1021c000020032006004980001003700500c9800b3
:1021d0008004eb00090078004f04be0000000600f8
:1021e000889fbe008a1f780000047800c800900015
:1021f000680190000000eb00828f50003c00390025
:10220000180078002200290002016000e20f51004e
:1022100007003200012020000000e000010035002e
:1022200001202400008c70000080eb00300037009b
:102230000200260002006000820f500009003a00f0
:1022400038009000808f50000600390008007800a8
:10225000a8ff0700800078000080eb000100e0008c
:1022600023003a001805780000c020000000650037
:1022700018003a00a8049000600220000800400006
:10228000808f540013003a0000202000ef00070068
:10229000200498000000e00005003a00290498009e
:1022a000490498008904e8003904980008003700c0
:1022b0000a60a0000a0c7800400498000120200069
:1022c0008080400031049800400c9800500c980029
:1022d0000c0007002800900050049800380090007f
:1022e0006004980000002600180c70000000eb004d
:1022f0004f0578004f04be00000006004022210078
:1023000061003700881f7800689520001804e000fd
:1023100003003a00f9ff070020c0b300004c78002a
:102320004f04780000000600889fbe00000478007b
:10233000080078006fff0700800478000004200088
:102340001800600002003200280090005a000700c8
:102350000000eb0020049800384090000004e000ea
:10236000050035000000fb0077f807000000e000e2
:10237000010032008084eb00181090000000e000a3
:1023800008003200bbf807000000e0000100320046
:102390008084eb0018109000470007000000eb005d
:1023a000101498000008200018006000150032008a
:1023b0000001eb006000b800639020000202d00032
:1023c00063027a00880f520005003a0000004000c6
:1023d00081804800008041000008eb0006003700c3
:1023e00061004000e08048000201e800e80f500072
:1023f000e08f5800f0ff3a00080078002e00070038
:102400000e003700000c780000c0eb00304498004c
:10241000600220000800400020049800400498005a
:1024200050049800400c980060049800500c9800ec
:102430007004980076004400000c980009007800b1
:102440004f04be0000000600881f78000004eb0067
:102450006140b800e2ff2f00f3ff2f000f010700db
:1024600042912000620078000000e000010032008c
:10247000adff07000804e800e80f5400f4ff3a003d
:102480004f04780000000600010020000100e00079
:1024900008003200010080000100e0000500320069
:1024a0008100e900010088008100d0000200800066
:1024b00000b17800000006000000e0002f003200ac
:1024c000c0017800e38f51002c0036000308a30000
:1024d0002a003a00a14a80000100e0000200320018
:1024e000810f50000400310011009800a04a8800bc
:1024f0001600370082007800110190000200e00011
:1025000002003200800f5100faff390011027800fa
:1025100084824000850f500018003900808f5200df
:1025200003003a00830842000100780007003700ea
:102530000200e0000300320083014000830f5100dd
:102540000e00390012009800900098009000900052
:102550000100e0000900320010014000828f5000ad
:1025600006003a00229520000009eb0010017800d7
:102570001108410091009000110098000000060031
:10258000889fbe0000047800914a80000100e000ae
:1025900002003200010078000d003700a14a8000df
:1025a0004095200004003700910f540025003600ac
:1025b0000180e800910090000100e000faff3a007d
:1025c00010003700920f54001e0036000280e80011
:1025d000100178000200e000faff3a0011017800d3
:1025e000a14a80004095200004003700910f54005c
:1025f000140036000180e80091009000828f5000a6
:10260000faff3a00c94a8000888f54000100310067
:102610008804780009007800360007000000e00018
:1026200004003a00888f5400050032008904d1006c
:10263000f5ff3700091878009fff0700d2ff370029
:102640000000eb004f04be0000000600881f780069
:10265000630440000800a1008000eb00800f5400dc
:1026600021003600e30f540001003e004800200026
:1026700008007800c2ff07008000eb000000e000c7
:1026800019003200900078009101780064815100b7
:10269000880f5100030031001101900002087800fa
:1026a000070037000881400002087800910190007f
:1026b00013019800100178001109140088087800af
:1026c000100178000000eb000200e000040032007e
:1026d000920190000300e000010032000280e80057
:1026e000904a88008180e800010078004f0478005b
:1026f00000000600800078000000eb000100e00010
:102700000500340001007800e3f70700e10f400006
:1027100001003a000000eb000000060000c0da00f3
:102720000000060000c0da000000060000c0da0069
:10273000000006003400f8000203be0082027000b0
:102740008502720002f0a60000f0a6008100e800f9
:10275000a10188001500b20008003200105978006d
:102760000402e9000d00320061004000fbff390067
:102770003420ec0000002800f8ff37001019780022
:102780000482e9000500320062004000fbff3900ce
:102790003420ec0000002800f8ff37003400f90076
:1027a0000601be00000006000300e0000700320042
:1027b000a5018000a101880010427800a5018800d1
:1027c0000402fb00820f5200110032008301e90075
:1027d000a5018000a101880010427800a5018800b1
:1027e0000404e00008003200000278001000b0008d
:1027f00000026a004260af0000f0a0000482d20034
:102800000180b000e8ff3700000020000100200038
:1028100000000600839f68000100e00002003d0008
:1028200060001000e08018000300e00002003d009e
:1028300060011100e0811900050007004f00e00071
:1028400002003b0060001000e0801800000006005d
:102850006022b800060220000000d0008180d20073
:102860000482d2008582d2000000a0000202520041
:1028700083825a00030031000202420083824a0030
:102880000000a1000603e900f3ff3a000000060083
:10289000efff07000400be0000000600020ab900b6
:1028a000001bb9000200b800810042008100430013
:1028b00000000600889fbe008a9fbe0030044200d0
:1028c000b0844a0030054b0090854b006000b10099
:1028d0000898be000a90be000440e10005c8e1006f
:1028e00006d0e10007d8e100020031006800400096
:1028f0001008e8004f05be004f04be0000000600af
:10290000889fbe008a9fbe003004be002005be0026
:102910000418540005985c0006185d0007985d00d7
:10292000110020000440e10005c8e10006d0e100ec
:1029300007d8e100010039008000eb00108810008a
:102940004f05be004f04be00000006001200fa0052
:10295000889fbe008a9fbe008c9fbe00e0b79f008c
:10296000f1b79f0082bf9f0093bf9f000605be0086
:102970000404be000000eb00d0b79f00c0b79f006a
:10298000b0b79f00a0b79f0090b79f0000067800e7
:102990005fb19700cfb09700820141003fb0970030
:1029a0000200e00004003d00370007007e80570071
:1029b000c0ff070003003700330007007e80570088
:1029c000cfff0700dfb697000d00e0000c003500d8
:1029d0006fb29700ffb297000fbb97009fbb9700a5
:1029e00010002000010020006011b80000027200f9
:1029f0008182720002037300838373001b0007004f
:102a00000c06e80001042000810f5600e0ff3a00a8
:102a10000d00e00004003d000802be000a03be00f5
:102a20007e805700a3ff07005fa897000000e0002a
:102a300005003a001fb29700afb297003fb397006e
:102a4000cfb39700090007006fb09700ffb0970061
:102a50000fb997009fb997004f06be004f05be0003
:102a60004f04be000080fa000000060001000700cd
:102a700000000600a4b79f00b5b79f00c6b79f002f
:102a8000d7b79f00000006004f09de008281710069
:102a9000b3b79f004f01de0081804000828070004c
:102aa000a1b79f008fb097004f09de0000004000e3
:102ab0000200700090b79f007fa897004f01de00d2
:102ac000818040008280700081b79f000d00070068
:102ad0004f3ade000000400004007000f0af9f009d
:102ae000080007000402420085824a0006034b00ea
:102af00087834b00dfff07000802be000a03be0009
:102b0000000006002fb29700bfb297004fb39700a6
:102b1000dfb3970000000600881f7800180020002f
:102b2000881f780089ff07008f87e9004f0478002d
:102b300000000600801feb0084ff07008f87e9007c
:102b400000000600889fbe008a9fbe00e00f500074
:102b5000e08f5800e00f5900e08f59000c003d0055
:102b60006044b8006055b8000000540081805c00eb
:102b700002015d0083815d00180020001500070040
:102b800008003d00180007000004eb0005003700b6
:102b90000004eb000f00070002003d0012000700d8
:102ba00018002000dcff07000800e00006003200eb
:102bb0006022b8006033b8000000520081805a00e3
:102bc00002015b0083815b004f05be004f04be0025
:102bd00000000600e00f5200e08f5a00e00f5b009b
:102be000e08f5b00000006006044b8006055b8004c
:102bf0000402540085825c0006035d0087835d004b
:102c000000000600889fbe008a9fbe008c1f7800cf
:102c1000e00f5000e08f5800e00f5900e08f59009e
:102c20000d003d006044b8006055b800000054003d
:102c300081805c0002015d0083815d001c0020003a
:102c40000820e10009a8e1000ab0e1000bb8e100aa
:102c50000d003d00080037000006eb00e00f5200b9
:102c6000e08f5a00e00f5b00e08f5b0006003d0044
:102c70006044b8006055b8000402540085825c00ce
:102c800006035d0087835d00aaff07000c00e000db
:102c9000060032006022b8006033b8000000520025
:102ca00081805a0002015b0083815b004f0678003f
:0c2cb0004f05be004f04be0000000600ef
:020000040000fa
:102cbc0025690000002c0000002a000000250000ff
:102ccc0064000000480000005400000043000000b5
:102cdc003b200000543a0000200000003b20000084
:102cec00005200003a20000000000000000000002c
:102cfc0000000000000000000000000000000000c8
:102d0c00484c00005245000046000000484c0000b2
:102d1c00454e000041000000484c000053410000ab
:102d2c00540000002d0000002b0000004d4300005b
:102d3c00544500004d2c0000000000000000000075
:0c2d4c000000000000000000000000007b
:020000040000fa
:102d58000400fa00000f7800214798001e00780050
:102d6800701890009e0078002e41900082707800c4
:102d78001e007800701890008000e800c003200052
:102d880000017800110009008200d8008000fd00d1
:102d9800800078001e007800711898001e007800e6
:102da800e01890001e00780070189000808f500086
:102db80005003a001e007800601890008000e800c6
:102dc8001e007800611898000080fa0000000600d4
:102dd8000400fa00000f7800110798001e00780020
:102de800e01890001e00780070189000808f500046
:102df800130032001e007800601890009e007800d2
:102e0800e14078001e009000014878001e0078001c
:102e1800601890008000e800c003200000017800de
:102e2800110009008200d8008000fd0080007800b1
:102e38001e007800611898000000eb0001003700c0
:102e48000080eb000080fa00000006000200fa0093
:102e5800000f78001e007800e01890001e0078002f
:102e680070189000808f500006003c001e0078000b
:102e7800f01890001e007800601890000080500044
:102e8800070037001e00780060189000c10320007a
:102e9800808050001e00780070189000008040006c
:102ea8000080fa00000006000000fa0021158000ea
:102eb80000fc2f00008060000030a0002015880072
:102ec800a042a80001158000000e2000010070003b
:102ed8000015880021158000f00f2e00008060008a
:102ee80000c0a0002015880011158000f0cf2f0029
:102ef800008060000080a000101588003115800057
:102f080000ff2f00008060000010a000301588002e
:102f1800a6a2a8000080eb0040158800a842a900de
:102f2800a862a9001115800030fc2f000080600005
:102f38000020a00010158800a1e2a8000080fa0077
:102f4800000006002e00fa00889fbe008a9fbe007f
:102f58004017980051179800621798008f0478005e
:102f68000f007800000578004e109000d1f7070098
:102f7800600798006e0090008000e90071079800d3
:102f88000000e8000000e8000000d10080004000d8
:102f98000f007800818747000000e8000000d1009a
:102fa80000004000000f98006e0090008000e900cb
:102fb800110f98000000e8000000e8000000d100b0
:102fc800800040000f007800818747000000e8007b
:102fd8000000d10000004000200f98000000eb0026
:102fe800000f78006e0090008000e900310f980013
:102ff8000000e8000000e8000000d1008000400068
:103008000f007800818747000000e8000000d10029
:1030180000004000400f9800080037001e007800ac
:10302800ce10900000804000904078004e0890003c
:103038001e004000014878001e0fe8006e00900056
:103048009e007800808f5000f4ff35004e089000f5
:1030580090407800215f98004e08900090409000c2
:10306800315f98004e089000a0409000415f9800a2
:103078000000eb002007980010002000300798009f
:103088000000eb00100798009e0037001e0090001b
:10309800ce1090000080400090407800c0c2b3007d
:1030a80080cf50003a003a000f0078008005780081
:1030b8001e0090000000e8008000e900710f9800f1
:1030c8000000e8000000e8000000d1008000400097
:1030d8000f007800818747000000e8000000d10059
:1030e80000004000001798000000eb00400798001f
:1030f8000b0037008e0890004e00900000804000c2
:10310800904078000e1190004e00900000004100a1
:10311800014878004e0090000000e8004007980041
:10312800ce0090001e009000808f5000f1ff350007
:103138008e1090001e009000008040008040eb0040
:10314800014878000e109000de109000fa06070083
:10315800300798003e009000e10f400003003a005d
:103168000084eb000000eb00060037001e00900012
:103178000000e800100798009e00900021079800c2
:10318800100020008b077800e10f500063003a0020
:103198001e009000ce109000008040001040780083
:1031a8000004e0003a003a000f007800800578003b
:1031b8009e0090002e009000008050000000e80063
:1031c8008000e900111798000000e8000000e800fe
:1031d8000000d100800040000f0078008187470080
:1031e8000000e8000000d10000004000201798000f
:1031f8000000eb00500798000b003700ae08900065
:103208005e00900000804000904078002e119000f1
:103218005e00900000004100014878005e009000c8
:103228000000e800500798009e0090002e009000d3
:10323800808050005e009000808f5000efff3c00bf
:103248009e0090002e00900000805000ae1090006c
:103258000041eb00827078002e109000ee10900074
:10326800b5060700300798003e009000e10f4000c7
:1032780003003a000084eb000000eb000100370077
:10328800100020008b077800e10f500023003a005f
:103298003e009000e10f50000e003a001e00900022
:1032a800ce10900000804000904078000e099000f9
:1032b8001e00900000004100014878008e08900030
:1032c8001e009000008040009040780061679800e0
:1032d800090037009e0090002e00900000805000ea
:1032e8009e0090004e11900081004100114178002d
:1032f800ae089000827078001e0090000000e80080
:10330800100798006e0090008000e8001e009000f2
:10331800808f50005dff3c000004eb008a077800b6
:1033280008007800890778004f05be004f04be00ea
:103338000080fa00000006001e00fa00500f9800f6
:10334800610f980040d224003114240040079800ef
:103358005107980030b42400c1022000600798008b
:1033680071079800f0004700020009008018eb0080
:103378008058eb000040eb00404798004e4090001a
:103388000000fb00ee089000811f7800e16529002d
:10339800811f7800e1f60700e48757000000eb0082
:1033a800000f7800080037001e007800de08900043
:1033b8000080400080407800770047001e004000f1
:1033c800014878001e0fe8001e007800e20f500048
:1033d800f5ff3400f7004700680047009bf6070038
:1033e80068004700b3f60700e80047000080400087
:1033f80022002000116629008df607004e4090003b
:103408000000fb0080007800680047008ff6070086
:1034180068004700a7f60700e80047000080400062
:10342800220020003166290081f607000000eb0029
:1034380010079800680047009ef6070030079800bc
:103448000c0037008f20a900e80047001e009000fc
:10345800008040001040780080407800e084200020
:103468003bfe07008f20a8001e0090000000e80027
:10347800100798009e0090003e009000808f50003a
:10348800f0ff35000080fa00000006002400fa0072
:1034980000179800111798000000eb00000f780043
:1034a80030408000e10f500003003a002000200067
:1034b800000f78000c0037000040800011408000a9
:1034c8000200200003f8230033f507000000e000a5
:1034d80003003a0010002000000f780002003700b7
:1034e8000000eb00000f780040d224003164240073
:1034f800300798004107980020b42400c10220003a
:103508005007980061079800ee0047000200090084
:103518008018eb008058eb00750047008e10900073
:10352800811f780051662900811f78007bf607000b
:10353800e48757007a0047009e109000811f7800aa
:1035480051662900811f780074f60700e487570048
:103558007f0047009e1f7800e1652900811f7800e1
:103568006ef60700e4875700f5004700660047003d
:1035780036f60700660047004ef60700e6004700eb
:1035880000804000220020001166290028f607006c
:10359800fa004700660047002cf60700660047005f
:1035a80044f60700e60047000080400022002000a3
:1035b800116629001ef60700ff0047006600470055
:1035c80022f60700660047003af60700e6004700c3
:1035d80000804000220020003166290014f6070010
:1035e8000000eb00100798006600470031f607005e
:1035f800200798000c0037008f20a900e60047003c
:103608001e00900000804000104078008040780044
:10361800e0842000cefd07008f20a8001e00900047
:103628000000e800100798009e0090002e0090000f
:10363800808f5000f0ff35000080fa00000006007f
:103648003400fa0070179800011f9800121f9800a4
:1036580030452500a1032200008fbe006000b8009d
:103668002007980031079800e80047000200090089
:103678008018eb008058eb0030408000e10f5000cc
:1036880007003a000e0078000af60700000047001d
:103698002200200081662900e5f5070014003700a4
:1036a80000408000114080000200200003f8230041
:1036b800b9f407000000e00007003a000e007800a7
:1036c800fcf507000000470022002000a166290041
:1036d800d7f50700060037000e007800f5f507005b
:1036e8000000470022002000c1662900d0f507002d
:1036f8000e007800eff50700000047006200200088
:10370800e1662900caf507006f004700fe10900027
:10371800811f780051662900811f7800fff5070096
:10372800e48757006f004700800078000e0078009b
:10373800c6f50700e10407008000eb000000eb007d
:10374800c70407000e007800b2040700706729005c
:10375800f500470003000900b05878004000b100a8
:10376800f90047000a0009008058eb0040022000d9
:103778000e0040009e189000811f780051662900b5
:10378800811f7800e5f50700e487570090022000c4
:103798000e0040008e189000811f780051662900a5
:1037a800811f7800ddf50700e487570091022000ab
:1037b8008e80400075004700a4f50700750047009b
:1037c800bcf50700f50047000080400032002000eb
:1037d8004167290096f50700410220008e804000cd
:1037e8007500470099f50700c50407008000eb0045
:1037f800100020009a0407007500470085040700a0
:103808000080fa00000006003600fa00101f980039
:10381800211f980030152400a1032200008fbe004c
:103828006000b8002007980031079800e8004700ba
:10383800020009008018eb008058eb006f00470079
:10384800ae189000811f780051662900811f78000a
:10385800b2f50700e4875700740047009e189000ef
:10386800811f780051662900811f7800abf5070099
:10387800e487570074004700800078000e00780045
:1038880072f507000e0078008af50700000047006f
:10389800320020004167290065f507006f004700e6
:1038a800800078000e00780068f5070083040700a0
:1038b8008000eb000000eb00690407000e007800b0
:1038c8005404070070672900f90047000300090045
:1038d800b05878004000b100fd0047000a00090018
:1038e8008058eb00b10e8000800220000e004000de
:1038f800811f780051662900811f780087f507002d
:10390800e4875700c10e8000d00220000e0040005e
:10391800811f780051662900811f78007ff5070014
:10392800e4875700810220008e804000790047001c
:1039380046f50700790047005ef50700f9004700e3
:1039480000804000320020004167290038f5070058
:10395800d10220008e804000790047003bf5070027
:10396800670407008000eb00100020003c040700fb
:1039780079004700270407000080fa0000000600cd
:103988000001fa00889fbe00813e20001000200040
:103998001703070080322200000f780080cd2d0029
:1039a80010079800803222001027980080cd2d0043
:1039b800202798000000eb00300798000000eb007b
:1039c8004007980040012000700f98000000eb00ad
:1039d800500798000000eb00100f98000000eb0063
:1039e800200f980050e424007037980010c4b300ea
:1039f80000f79800100720000e00400031c5b30002
:103a0800014878000000e80011c4b30001487800bc
:103a18000000e80041c5b300014878000000e80054
:103a2800e00620000e004000001798001007200054
:103a38000e00400010179800c622a900ca22a9004b
:103a4800c602a900ca02a900d902a800d202a80089
:103a580020732000200e8800010e8000c0ff2f0078
:103a680000806000000e8800010e800030ff2f00eb
:103a780000806000000e8800c8a1a800c1e1a8006d
:103a8800101180003000b30010118800111180005f
:103a980030fe2f00008060008001b3001011880004
:103aa80022a2a8002342a90021e2a800b000200019
:103ab800f01088001602a900b110800090ff2f00b6
:103ac80000806000b010880017e2a8001942a80022
:103ad80019e2a90010002000203f98000000eb0028
:103ae80000b798000000eb0010b798002073200082
:103af800200e8800010e8000c0ff2f0000806000ab
:103b0800000e8800010e800030ff2f00008060004a
:103b1800000e8800c8a1a800c821a800c881a80074
:103b2800c801a800610e800000fc2f000080600022
:103b38009000b300600e8800610e8000f0f32f0043
:103b480000806000600e8800c1e1a8008f20a800f6
:103b58008f00a8008cc0a8008ce0a8008c00a800ea
:103b68008e00a800fe089000100020001103070036
:103b78008f00a9007e089000cf80de00c6f3070002
:103b88000002be0000408000114080000001be001d
:103b98000400be00e1f207000040880011408800e0
:103ba800004080001140800018c0b30002002400cb
:103bb800c35924007af307000000e00001003d002b
:103bc8000044eb000804e000100032000a28ef006f
:103bd8000c28ef00501680006200600000f0a7007b
:103be8000000ea000000e9004f00de000040780015
:103bf8000080fb006100600000004000511680005a
:103c08000110a1000100700050168800e08020001b
:103c18008efc0700201798008f00a8000000eb001a
:103c2800200798009d0037008f00a900a00e2000f3
:103c38000e00400080007800e080200064fc07004f
:103c48008f00a800aee89100400720000e00400059
:103c5800bc030700301798003e109000e10f500099
:103c68008b003a00400720000e0040000080e8006a
:103c7800616829007ff407000000e00029003a008d
:103c8800304080000000e00026003a004007200095
:103c98000e00400068004000a2802000c180200083
:103ca800a8fc0700301798003e1090000000e000c4
:103cb8001c003a006000b8000040880011408800ed
:103cc800ca22a900604080009e0f50000300340003
:103cd8009e0078006140880006003700614080003f
:103ce8001e009000808f500002003d001e019000d1
:103cf80062408800504080009e0f5000030034004e
:103d08009e0178005340880006003700514080002b
:103d18001e009000808f500002003d009e00900021
:103d280051408800400720000e0040000080e80055
:103d3800c16829004ff407000000e00006003a00bf
:103d48008c00a9000628ef00110020000e1090003a
:103d580079fd07008c00a800400720000e004000f5
:103d68000080e8002169290042f407000000e00013
:103d780047003a00220420000e01410041042000bf
:103d88008e804000400720000e0040006800400080
:103d98006cfc0700301798003e1090000000e0000f
:103da8003b003a002e2090000000e00033003c0069
:103db800ae20900080cd2d00808f50002f00350060
:103dc8009e20900080322200808f50002b003c0003
:103dd8001e2090000000e00028003500ae20900072
:103de8001e209000808f500020003d001100200010
:103df8001e10900050fd07001e219000020f780051
:103e0800ae21900013079800604080009e0f50007c
:103e1800030034009e0078006140880006003700e7
:103e2800614080001e009000808f500002003d001d
:103e38001e01900062408800504080009e0f500094
:103e4800030034009e0178005340880010003700ba
:103e5800514080001e009000808f50000b003d00f4
:103e68009e00900051408800090037008000eb0058
:103e78001e10900030fd0700050037008000eb00a1
:103e88001e1090002cfd0700010037000000000004
:103e98002e0090000000e80020079800ae00900077
:103ea8002e109000808f50000b003d0000408000d5
:103eb8001140800018c0b30002002400c359240038
:103ec800b5f207000000e000010035000044eb00f7
:103ed8000804e00054ff3a0060408000cf80de0014
:103ee800edf20700e2332c00e382230042f30700df
:103ef8000200200003f0230008f207004017980092
:103f08005117980050408000cf80de00e2f2070091
:103f1800e2332c00e382230037f30700020020007d
:103f280003f02300fdf1070060179800711798004f
:103f380002002000832c24004e109000de10900018
:103f48002df3070098f20700001f980002002000d8
:103f5800832c24006e109000fe10900026f30700ba
:103f680091f20700101f9800400e20000e0040003c
:103f78000e199000821f7800e1652900811f7800e2
:103f8800e6f30700e4875700700e20000e0040009b
:103f98009e199000831f7800e1652900811f780031
:103fa800def30700e48757004e109000de10900003
:103fb8000001be00d9f107000004be00200e8000f9
:103fc8008000eb00b7f207000001be000800be0049
:103fd80009f3070095f2070000007800b00e88008a
:103fe8006e109000fe1090000001be00cbf107009b
:103ff8000004be00200e80008000eb00a9f207003c
:104008000001be000800be00fbf2070087f20700af
:1040180000007800c00e880010148000201f98004f
:104028002e189000cf80de009bf2070002002000cf
:104038000348240016f2070002002000030a2400a7
:10404800edf20700301f9800411f98000200200081
:1040580003f423003e189000ce189000aef107003c
:1040680002002000832c2400e3f207000200200055
:10407800831c2400a9f10700501f9800611f9800b5
:104088009e08900040062000808f500049003a00aa
:104098005e0090004200dd00000047006004b000b0
:1040a8005e199000ee1990000288be005e00900034
:1040b8000000e800500798006000b800600798000a
:1040c800710798005e009000ea0f500037003a0030
:1040d8000000eb00300f98006000b800400f980017
:1040e800510f98000f0037003e0890004200dd0095
:1040f800610420008e804000008040001000be0057
:104108000001be004e089000de08900083f1070011
:10411800400f9800510f98003e0890000000e800fa
:10412800300f98003e089000e90f5000eeff340071
:1041380002002000031224004e089000de089000c0
:10414800d3f1070060079800710798000000eb00a2
:10415800500798000000eb00000f980018c0b3004b
:104168006011b8006e009000fe0090000af207008f
:104178000000e000010035000044eb000804e00006
:10418800080032006e009000fe00900001f0a200ce
:10419800600798007107980010002000000f980031
:1041a800020037000000eb00000f98000000eb0051
:1041b800100f9800ae089000803e2000808f5000bd
:1041c80052003a00c0692900b30e2000830147005d
:1041d80006000900b05978007000b1008e00780020
:1041e800210fb000070009008058eb0002002000f2
:1041f800832c24006e009000fe0090007ef20700e1
:10420800e9f10700701f98000e0890000000e00018
:104218000a003200b00e20000e00400025f307000f
:10422800b10e20008e804000008040002200200057
:1042380081692900fef2070009003700b00e20004e
:104248000e0040001bf30700b10e20008e804000d6
:104258000080400022002000a1692900f4f2070034
:10426800a00f20000e0040007e199000821f7800e9
:10427800e1652900811f780028f30700e4875700cb
:10428800a10f20008e804000b00e20000e004000dc
:10429800eef20700b00e20000e00400005f3070004
:1042a800b10e20008e8040000080400022002000d7
:1042b80031662900def207000000eb00600f98006d
:1042c8000a0037000040eb0000c798008f20a900c3
:1042d8008ec09000e08420009dfa07008f20a8007f
:1042e8006e0890000000e800600f98006e0c9000c7
:1042f800b00e20000e004000eef20700800f5400c0
:10430800f0ff39000000eb00200f9800be0090007d
:10431800800c2000808f500005003a00514080003a
:104328006040800059fc07000000eb00300798004f
:10433800ce009000401f2000808f50000f003a00f0
:10434800501680006100600000f0a7000000ea003d
:104358000000e9004f00de00004078000080fb000c
:1043680061006000511680000100a100010070008a
:10437800501688000000eb00400798008e00a90046
:10438800404080000000e0000a003a0059408000e8
:10439800684080005e189000ee18900082f10700d7
:1043a800000078000901780088007800a4fc070064
:1043b800030037009e0078001e00900012fd0700e1
:1043c8008e00a800be0090007e089000008040008b
:1043d80030079800ce0090007e08900000804000d2
:1043e800400798009e0890007e08900000804000da
:1043f800100f9800ae0890007e08900000804000e2
:10440800200f9800100020003d010700d8fd37005c
:104418000e00fa00889fbe008a9fbe0040079800e1
:1044280051079800620798004e009000cf80de0088
:10443800327320000289b900020178006005b900d2
:104448008a01780003014100337320000300b8009b
:104458000101410082007800008fbe00008fbe007d
:104468001e01be002207980033079800f0ff2f00b6
:10447800010020001e01be00800f5100818f5900ed
:1044880008003c006e0090008000eb0001087800f6
:104498009e0078005e009000010878000000eb00a4
:1044a8004f0037002e009000be009000e00f500033
:1044b800e08f580002003d0067004000e08048009f
:1044c800cd09dd004304de0008847100c38cde00e2
:1044d800088fbe00f0ff2f00010020001e01be0063
:1044e800800f5100818f590008003c006e00900039
:1044f80011002000010878009e0078005e009000fe
:10450800010878000000eb00350037002e0090000d
:10451800be009000e00f5000e08f580002003d0000
:10452800f003b0000180b0004a09dd004603de0058
:1045380006037100c68bde00068fbe00f0ff2f0059
:10454800010020001e01be00800f5100818f59001c
:1045580008003c006e00900021002000010878004f
:104568009e0078005e009000010878000000eb00d3
:104578001b0037002e009000be009000e00f500096
:10458800e08f580002003d00f00fb0000180b0003d
:10459800c809dd004802de0004827100c88ade0016
:1045a800048fbe00f0ff2f00010020001e01be0096
:1045b800800f5100818f590008003c006e00900068
:1045c80031002000010878009e0078005e0090000d
:1045d800010878000000eb000100370010002000ff
:1045e8004f05be004f04be000080fa000000060020
:1045f8001000fa0060079800710798006e0090009c
:10460800e20f500024003200e30f50004400320053
:10461800e10f500064003a000e80e80000017800c5
:104628008e0078007e00900079ff07001e00780059
:10463800100888001e009000004078006340600069
:104648000080fb00630060004400dd002208800059
:10465800f1fc2f0081006100010070002008880033
:104668000421a90004c1a90005e1a9008460a900ea
:104678000021ef0005e1a8000000000020048000f0
:10468800680060000000e000fcff32008460a900c0
:1046980005e1a90044003700e60047006400470030
:1046a80001017800800078007e00900058ff070024
:1046b8002e009000600888003e00900000407800be
:1046c800634060000080fb00630060004400dd0080
:1046d80082088000f1fc2f00810061000100700059
:1046e800800888001021a90010c1a90011e1a900c3
:1046f80084c0a9000621ef0011e1a8000000000015
:104708002104800000042000008060000000e00018
:10471800fbff320084c0a90011e1a9002200370084
:10472800ea0047006800470001017800800078002f
:104738007e00900036ff07004e0090007008880049
:104748005e00900000407800634060000080fb003d
:10475800630060004400dd0092088000f1fc2f0037
:104768008100610001007000900888001221a900f2
:1047780012c1a90013e1a90084e0a9000a21ef00f1
:1047880013e1a800000000002104800000082000b8
:10479800008060000000e000fbff320084e0a90018
:1047a80013e1a900000000000000eb000080fa00ff
:1047b800000006001000fa006007980071079800d2
:1047c8006e009000e20f50001b003200e30f500013
:1047d80031003200e10f500047003a000e80e80037
:1047e800000178008e0078007e00900008ff070026
:1047f8001e007800100888001e0090000040780015
:10480800634060000080fb00630060004400dd003e
:1048180022088000f1fc2f00810061000100700077
:10482800200888000421a90004c1a9000021ef0084
:1048380005e1a80030003700e600470064004700a3
:1048480001017800800078007e009000f0fe0700eb
:104858002e009000600888003e009000004078001c
:10486800634060000080fb00630060004400dd00de
:1048780082088000f1fc2f008100610001007000b7
:10488800800888001021a90010c1a9000621ef00a6
:1048980011e1a80018003700ea0047006800470047
:1048a80001017800800078007e009000d8fe0700a3
:1048b8004e009000700888005e009000004078006c
:1048c800634060000080fb00630060004400dd007e
:1048d80092088000f1fc2f00810061000100700047
:1048e800900888001221a90012c1a9000a21ef002e
:1048f80013e1a800000000000080fa000000060094
:104908000200fa00000f78001e007800e20f500045
:1049180012003200e30f500020003200e10f500077
:104928002e003a0020048000680060000000e000cb
:10493800030032008460a90010002000280037001e
:104948000000000020048000680060000000e00013
:10495800fcff32008460a900200037002104800099
:1049680000042000008060000000e0000300320026
:1049780084c0a900100020001900370000000000c2
:104988002104800000042000008060000000e00096
:10499800fbff320084c0a90010003700210480000a
:1049a80000082000008060000000e00003003200e2
:1049b80084e0a90010002000090037000000000072
:1049c8002104800000082000008060000000e00052
:1049d800fbff320084e0a900000000000000eb00ab
:1049e8000080fa00000006000200fa00004f78007c
:1049f8000000000000118000620060000000e0007c
:104a0800fcff3a001e00fb00201188000080fa001d
:104a1800000006000400fa00100798000000eb00f0
:104a2800000f7800060037001e0078009e009000f6
:104a38000080400010407800ebff07001e0fe800e0
:104a48001e0078009e009000008040001040780012
:104a58000004e000f4ff3a000080fa0000000600bd
:104a68000400fa00000f7800110798001e00780073
:104a78000000e00003003200e10f500007003200a0
:104a88000c0037001e0090008040780000c8b3007a
:104a980000c04000d4ff0700060037001e00900049
:104aa8008040780000ccb30000c04000ceff070073
:104ab800000000000080fa00000006000200fa0072
:104ac8008000eb000000eb00e5ff07000000eb00b2
:104ad800000f78000000eb00000f7800030037009b
:104ae80000c2b300c0ff07001e0fe8001e007800d8
:104af800ef0f5000faff34000080fa0000000600b3
:104b08000200fa008000eb0010002000d4ff07002c
:104b18000000eb00000f78000000eb00000f7800a9
:104b28000300370000c2b300afff07001e0fe80004
:104b38001e007800ef0f5000faff34000080fa00e2
:104b4800000006000400fa00000f780021479800d2
:104b58001e00780010007800e20f50000f003200ad
:104b6800e30f500048003200e10f50006f003a0098
:104b7800ae40900040c2b30080cf50006a003a00b7
:104b88001e00780021002000010878001e0078002f
:104b98008000eb006130980064003700ae40900060
:104ba800c0c2b30080cf50000d003a001e0078004c
:104bb80031002000010878001e0078006030900065
:104bc8009e007800008040008040eb002140980063
:104bd8001e0078008000eb00713098005300370009
:104be8001e00780060309000e60f500008003a0080
:104bf8001e00780011002000010878001e007800cf
:104c08008000eb00613098000080eb00480037001e
:104c1800ae409000a0c2b30080cf50000e003a0012
:104c28001e00780011002000010878001e0078009e
:104c3800603090009e007800008040008040eb00cb
:104c4800214098001e0078008040eb000148980041
:104c580010002000360037001e00780060309000f9
:104c68009e00780000804000ae40900021409800ef
:104c78001e007800603090008000e8001e00780078
:104c88006130980029003700ae409000a0c2b30000
:104c980080cf50000b003a001e0078001100200061
:104ca800010878001e007800703090009e0078009f
:104cb800008040008040eb00014898001000200070
:104cc8001b0037001e007800f030900040062000de
:104cd800808f500008003a001e0078001100200064
:104ce800010878001e0078008000eb007130980001
:104cf8000080eb000e0037001e0078007030900036
:104d08009e00780000804000ae4090000148980066
:104d18001e007800703090008000e8001e007800c7
:104d28007130980001003700000000000000eb001f
:104d38000080fa00000006000a00fa003007980018
:104d4800410798000000eb00000f78000000eb001e
:104d58001007980010002000200798001e00780017
:104d6800be0090000080400090407800d0c2b300a0
:104d780080cf500004003a000080eb002007980024
:104d88001e0fe8002d0037001e007800be009000be
:104d98000080400090407800b0c2b30080cf50003f
:104da80025003a0010002000200798001e0fe80098
:104db800220037001e007800be00900000804000ee
:104dc800104078000000fb000003b1000000e00084
:104dd800080035001e007800be00900000804000ea
:104de800104078000000fb000003b100e90f5000fc
:104df800020034000080eb00240037001e00900001
:104e08006a00b90000007800100798001e007800ba
:104e1800be00900000804000104078000000fb00b9
:104e28000003b1009e009000008040001007980029
:104e38001e0fe80001003700000000001e00780087
:104e4800be0090000080400090407800c0c2b300cf
:104e580080cf5000060032001e007800be0090008f
:104e680000804000104078000004e000d1ff3a00c4
:104e7800ae0090001e0090000088b9008000780005
:104e88004e009000010878000000eb000080fa0056
:044e98000000060010
:020000040000fa
:104e9c00000800008e00000000000000380900002f
:104eac001a00000002000000686a6c00747a4c0062
:104ebc0000000100000200000400080000100000c7
:104ecc00000020002b2d23003000000016090000ec
:104edc002200000002000000303132003334350073
:104eec003637380039414200434445004600300013
:104efc0031323300343536003738390061626300a3
:104f0c0064656600000000008e0800008800000048
:104f1c00020000000100000000b40800b508b40055
:104f2c0008b40800b408b40008a40800000000008d
:104f3c000000000000000000000000000000000065
:104f4c000000000000000000000208000101dc006d
:104f5c0008dd0800dc08dc0008dc0800dc08cc00fc
:104f6c00080000000000000000000000000000002d
:104f7c000000000000000000000000000000020023
:104f8c0008020200040905000904090004090400d0
:104f9c0009040900f40800000000000000000000f3
:104fac0000000000000000000000000000000000f5
:104fbc00000000008e08b60008de080000000000ab
:104fcc000000000000000000000000005609000076
:104fdc000200000000000000580900000200000060
:104fec000200000004000000520900000400000050
:104ffc00000000005a09000002000000020000003e
:10500c00010000005c09000002000000000000002c
:04501c000000000090
:020000040000fa
:0200000401f009
:04000000f4bd00004b
:020000040000fa
:0200000401f009
:04000400ff7f00007a
:020000040000fa
:0200000401f009
:04000800ffff0000f6
:020000040000fa
:0200000401f009
:04001400ffffff00eb
:020000040000fa
:0200000401f009
:04001800ffff0000e6
:00000001FF
