:020000040000fa
:080000000001040000000000f3
:020000040000fa
:0400080000020000f2
:020000040000fa
:04000c0000020000ee
:020000040000fa
:0400100000020000ea
:020000040000fa
:0400140000020000e6
:020000040000fa
:0400180000020000e2
:020000040000fa
:04001c0000020000de
:020000040000fa
:0400200000020000da
:020000040000fa
:0400240000020000d6
:020000040000fa
:0400280000020000d2
:020000040000fa
:04002c0000020000ce
:020000040000fa
:0400300000020000ca
:020000040000fa
:0400340000020000c6
:020000040000fa
:0400380000020000c2
:020000040000fa
:04003c0000020000be
:020000040000fa
:0400400000020000ba
:020000040000fa
:0400440000020000b6
:020000040000fa
:0400480000020000b2
:020000040000fa
:04004c0000020000ae
:020000040000fa
:0400500000020000aa
:020000040000fa
:0400540000020000a6
:020000040000fa
:0400580000020000a2
:020000040000fa
:04005c00000200009e
:020000040000fa
:04006000000200009a
:020000040000fa
:040064000002000096
:020000040000fa
:040068000002000092
:020000040000fa
:04006c00000200008e
:020000040000fa
:04007000000200008a
:020000040000fa
:040074000002000086
:020000040000fa
:040078000002000082
:020000040000fa
:04007c00000200007e
:020000040000fa
:04008000000200007a
:020000040000fa
:040084000002000076
:020000040000fa
:04008800c8010000ab
:020000040000fa
:04008c00000200006e
:020000040000fa
:04009000000200006a
:020000040000fa
:040094000002000066
:020000040000fa
:040098000002000062
:020000040000fa
:04009c00000200005e
:020000040000fa
:0400a000000200005a
:020000040000fa
:0400a4000002000056
:020000040000fa
:0400a8000002000052
:020000040000fa
:0400ac00000200004e
:020000040000fa
:0400b000000200004a
:020000040000fa
:0400b4000002000046
:020000040000fa
:0400b8000002000042
:020000040000fa
:0400bc00000200003e
:020000040000fa
:0400c000000200003a
:020000040000fa
:0400c4000002000036
:020000040000fa
:0400c8000002000032
:020000040000fa
:0400cc00000200002e
:020000040000fa
:0400d000000200002a
:020000040000fa
:0400d4000002000026
:020000040000fa
:0400d8000002000022
:020000040000fa
:0401080000020000f1
:020000040000fa
:04010c0000020000ed
:020000040000fa
:0401100000020000e9
:020000040000fa
:0401140000020000e5
:020000040000fa
:0401180000020000e1
:020000040000fa
:04011c0000020000dd
:020000040000fa
:0401200000020000d9
:020000040000fa
:0401240000020000d5
:020000040000fa
:0401280000020000d1
:020000040000fa
:04012c0000020000cd
:020000040000fa
:0401300000020000c9
:020000040000fa
:0401340000020000c5
:020000040000fa
:0401380000020000c1
:020000040000fa
:04013c0000020000bd
:020000040000fa
:0401400000020000b9
:020000040000fa
:0401440000020000b5
:020000040000fa
:0401480000020000b1
:020000040000fa
:04014c0000020000ad
:020000040000fa
:0401500000020000a9
:020000040000fa
:0401540000020000a5
:020000040000fa
:0401580000020000a1
:020000040000fa
:04015c00000200009d
:020000040000fa
:040160000002000099
:020000040000fa
:040164000002000095
:020000040000fa
:040168000002000091
:020000040000fa
:04016c00000200008d
:020000040000fa
:040170000002000089
:020000040000fa
:040174000002000085
:020000040000fa
:040178000002000081
:020000040000fa
:04017c00000200007d
:020000040000fa
:040180000002000079
:020000040000fa
:040184000002000075
:020000040000fa
:04018800c8010000aa
:020000040000fa
:04018c00000200006d
:020000040000fa
:040190000002000069
:020000040000fa
:040194000002000065
:020000040000fa
:040198000002000061
:020000040000fa
:04019c00000200005d
:020000040000fa
:0401a0000002000059
:020000040000fa
:0401a4000002000055
:020000040000fa
:0401a8000002000051
:020000040000fa
:0401ac00000200004d
:020000040000fa
:0401b0000002000049
:020000040000fa
:0401b4000002000045
:020000040000fa
:0401b8000002000041
:020000040000fa
:0401bc00000200003d
:020000040000fa
:0401c0000002000039
:020000040000fa
:0401c4000002000035
:020000040000fa
:0401c8000002000031
:020000040000fa
:0401cc00000200002d
:020000040000fa
:0401d0000002000029
:020000040000fa
:0401d4000002000025
:020000040000fa
:0401d8000002000021
:020000040000fa
:100200004f8220000eff20000e0188000000000039
:10021000000020000000e000020032000001200089
:100220002002880014000700770007000000e000ab
:1002300003003a00608f2000010020000200370018
:100240000000200001002000810f7000010032003a
:1002500014000700000020000000e000020032004f
:1002600000000200000000009e06020000000000e6
:100270000040da000000fe004440a90060002000b9
:100280000000e0000300320000002000a001880010
:100290004440a800000006008a1f78008b1f7800e9
:1002a0000000060091018800800478000000eb0047
:1002b0001a003700e284440032a0b4009905ba0065
:1002c000e284440032a0b4009906ba00e2844400fb
:1002d00032a0b4000006eb00476fde00fd07b2005d
:1002e000636ce10003003a00ebff07000000eb0045
:1002f0000a003700606ce10004003a00005deb008a
:100300008b05e900fdff3e00040037006168e10055
:10031000010032000086eb000b00070019c7ba008d
:100320001905ba000e04e00003003a000a00e000dc
:10033000e0ff3a0000000600fe07b2009e018800c0
:100340008a047800f5ff3700395dba008b05e900b3
:100350000c003200295dba008b05e900080032006c
:100360000c00e00003003a00e284440032a0b40034
:10037000f5ff370019ddba008b05e900faff3a00f6
:100380008904e800e184440032a0b40000000600c3
:100390003600f800809fbe00829fbe00849fbe0092
:1003a000869fbe003400f80000002000a0018800f5
:1003b0000000fa008700a90005003700e010800067
:1003c000004078008040780000802000de010700b7
:1003d000c0108000610060000000e000f7ff3a00fc
:1003e0000080fa003400f9004f03be004f02be0047
:1003f0004f01be004f00be003600f900004006006d
:100400000040da000000fe00000005000200370096
:100410000204e0000b003200810178000002780045
:1004200030417800b14f5100f9ff32001000200038
:1004300014427800934f5200030031000080eb001b
:0c044000000006000000eb0000000600b9
:020000040000fa
:0c044c004d430000524500004600000037
:020000040000fa
:100458000e00fa00889fbe008a9fbe0040079800e1
:1004680051079800620798004e009000cf80de0088
:10047800327320000289b900020178006005b900d2
:100488008a01780003014100337320000300b8009b
:100498000101410082007800008fbe00008fbe007d
:1004a8001e01be002207980033079800f0ff2f00b6
:1004b800010020001e01be00800f5100818f5900ed
:1004c80008003c006e0090008000eb0001087800f6
:1004d8009e0078005e009000010878000000eb00a4
:1004e8004f0037002e009000be009000e00f500033
:1004f800e08f580002003d0067004000e08048009f
:10050800cd09dd004304de0008847100c38cde00e1
:10051800088fbe00f0ff2f00010020001e01be0062
:10052800800f5100818f590008003c006e00900038
:1005380011002000010878009e0078005e009000fd
:10054800010878000000eb00350037002e0090000d
:10055800be009000e00f5000e08f580002003d0000
:10056800f003b0000180b0004a09dd004603de0058
:1005780006037100c68bde00068fbe00f0ff2f0059
:10058800010020001e01be00800f5100818f59001c
:1005980008003c006e00900021002000010878004f
:1005a8009e0078005e009000010878000000eb00d3
:1005b8001b0037002e009000be009000e00f500096
:1005c800e08f580002003d00f00fb0000180b0003d
:1005d800c809dd004802de0004827100c88ade0016
:1005e800048fbe00f0ff2f00010020001e01be0096
:1005f800800f5100818f590008003c006e00900068
:1006080031002000010878009e0078005e0090000c
:10061800010878000000eb000100370010002000fe
:100628004f05be004f04be000080fa00000006001f
:100638001000fa0060079800710798006e0090009b
:10064800e20f500024003200e30f50004400320053
:10065800e10f500064003a000e80e80000017800c5
:100668008e0078007e00900079ff07001e00780059
:10067800100888001e009000004078006340600069
:100688000080fb00630060004400dd002208800059
:10069800f1fc2f0081006100010070002008880033
:1006a8000421a90004c1a90005e1a9008460a900ea
:1006b8000021ef0005e1a8000000000020048000f0
:1006c800680060000000e000fcff32008460a900c0
:1006d80005e1a90044003700e60047006400470030
:1006e80001017800800078007e00900058ff070024
:1006f8002e009000600888003e00900000407800be
:10070800634060000080fb00630060004400dd007f
:1007180082088000f1fc2f00810061000100700058
:10072800800888001021a90010c1a90011e1a900c2
:1007380084c0a9000621ef0011e1a8000000000014
:100748002104800000042000008060000000e00018
:10075800fbff320084c0a90011e1a9002200370084
:10076800ea0047006800470001017800800078002f
:100778007e00900036ff07004e0090007008880049
:100788005e00900000407800634060000080fb003d
:10079800630060004400dd0092088000f1fc2f0037
:1007a8008100610001007000900888001221a900f2
:1007b80012c1a90013e1a90084e0a9000a21ef00f1
:1007c80013e1a800000000002104800000082000b8
:1007d800008060000000e000fbff320084e0a90018
:1007e80013e1a900000000000000eb000080fa00ff
:1007f800000006001000fa006007980071079800d2
:100808006e009000e20f50001b003200e30f500012
:1008180031003200e10f500047003a000e80e80036
:10082800000178008e0078007e00900008ff070025
:100838001e007800100888001e0090000040780014
:10084800634060000080fb00630060004400dd003e
:1008580022088000f1fc2f00810061000100700077
:10086800200888000421a90004c1a9000021ef0084
:1008780005e1a80030003700e600470064004700a3
:1008880001017800800078007e009000f0fe0700eb
:100898002e009000600888003e009000004078001c
:1008a800634060000080fb00630060004400dd00de
:1008b80082088000f1fc2f008100610001007000b7
:1008c800800888001021a90010c1a9000621ef00a6
:1008d80011e1a80018003700ea0047006800470047
:1008e80001017800800078007e009000d8fe0700a3
:1008f8004e009000700888005e009000004078006c
:10090800634060000080fb00630060004400dd007d
:1009180092088000f1fc2f00810061000100700046
:10092800900888001221a90012c1a9000a21ef002d
:1009380013e1a800000000000080fa000000060093
:100948000200fa00000f78001e007800e20f500045
:1009580012003200e30f500020003200e10f500077
:100968002e003a0020048000680060000000e000cb
:10097800030032008460a90010002000280037001e
:100988000000000020048000680060000000e00013
:10099800fcff32008460a900200037002104800099
:1009a80000042000008060000000e0000300320026
:1009b80084c0a900100020001900370000000000c2
:1009c8002104800000042000008060000000e00096
:1009d800fbff320084c0a90010003700210480000a
:1009e80000082000008060000000e00003003200e2
:1009f80084e0a90010002000090037000000000072
:100a08002104800000082000008060000000e00051
:100a1800fbff320084e0a900000000000000eb00aa
:100a28000080fa00000006000200fa00004f78007b
:100a38000000000000118000620060000000e0007b
:100a4800fcff3a001e00fb00201188000080fa001d
:100a5800000006000400fa00100798000000eb00f0
:100a6800000f7800060037001e0078009e009000f6
:100a78000080400010407800ebff07001e0fe800e0
:100a88001e0078009e009000008040001040780012
:100a98000004e000f4ff3a000080fa0000000600bd
:100aa8000400fa00000f7800110798001e00780073
:100ab8000000e00003003200e10f500007003200a0
:100ac8000c0037001e0090008040780000c8b3007a
:100ad80000c04000d4ff0700060037001e00900049
:100ae8008040780000ccb30000c04000ceff070073
:100af800000000000080fa00000006000200fa0072
:100b08008000eb000000eb00e5ff07000000eb00b1
:100b1800000f78000000eb00000f7800030037009a
:100b280000c2b300c0ff07001e0fe8001e007800d7
:100b3800ef0f5000faff34000080fa0000000600b2
:100b48000400fa00000f7800214798001e00780082
:100b5800100890009e0078002e4190008270780066
:100b68001e007800100890008000e800f0002000c7
:100b780000017800110009008200d8008000fd0003
:100b8800800078001e007800110898001e00780088
:100b9800800890001e00780010089000808f500098
:100ba80005003a001e007800000890008000e80068
:100bb8001e007800010898000080fa000000060076
:100bc8000400fa00000f7800110798001e00780052
:100bd800800890001e00780010089000808f500058
:100be800110032001e007800000890009e00780076
:100bf800e14078001e009000014878001e0078004f
:100c0800000890008000e800f00020000001780053
:100c1800110009008200d8008000fd0080007800e3
:100c28001e007800010898000080fa000000060005
:100c38000200fa00000f78001e007800800890007b
:100c48001e00780010089000808f500006003c00bd
:100c58001e007800900890001e00780000089000a0
:100c680000805000060037001e0078000008900041
:100c7800ef0010001e00780010089000008040006f
:100c88000080fa00000006000400fa000000eb00f3
:100c9800100798000000eb00000f780020003700d4
:100ca8001e007800c200dd00408120000080400066
:100cb800100078008000e8001e0078004201dd0086
:100cc8004081200000004100010878001e007800e3
:100cd800c200dd00408120000080400090007800c4
:100ce8001e0078004200dd000081e80040812000fd
:100cf8000000410010007800808f50000700350088
:100d0800000000001e007800c200dd0040812000c5
:100d1800008040008000eb00010878001e0fe8000a
:100d28001e007800e30f5000ddff34000080fa0059
:100d3800000006007a00fa00813e20001000200022
:100d48003bfe0700010e8000c0ff2f0000806000fe
:100d5800000e8800010e800030ff2f000080600028
:100d6800000e8800c8a1a80080392000200e880045
:100d7800c1e1a800b0002000f01088001602a90008
:100d8800b110800090ff2f0000806000b010880034
:100d980017e2a8001942a8008f00a8008cc0a8007c
:100da8008ce0a80010002000400798000000eb002d
:100db800203f98000000eb00303f98008f00a9000a
:100dc800008020009aff0700100798008f00a800f5
:100dd8000000eb00000f7800290037008f00a90001
:100de800800720000e00400080007800008020006e
:100df80073ff07008f00a8008ef890006800470076
:100e080024000700200798002e009000e10f5000f2
:100e18001a003a00680047000080e80061222800b4
:100e280078fd07000000e00014003a00e6004700e3
:100e380068004700680040009300070020079800fa
:100e48002e0090000000e0000c003a00be00900068
:100e5800803e2000808f500003003400803e200038
:100e680030079800050037003e0090000000e000c1
:100e780002003d000000eb00300798001e0fe8005c
:100e88001e0090009e007800808f5000d3ff350030
:100e9800caff37000400fa00000f780021479800c5
:100ea8001e00780010007800e20f50000f0032009a
:100eb800e30f500048003200e10f50006f003a0085
:100ec800ae40900040c2b30080cf50006a003a00a4
:100ed8001e00780021002000010878001e0078001c
:100ee8008000eb006130980064003700ae4090004d
:100ef800c0c2b30080cf50000d003a001e00780039
:100f080031002000010878001e0078006030900051
:100f18009e007800008040008040eb00214098004f
:100f28001e0078008000eb007130980053003700f5
:100f38001e00780060309000e60f500008003a006c
:100f48001e00780011002000010878001e007800bb
:100f58008000eb00613098000080eb00480037000b
:100f6800ae409000a0c2b30080cf50000e003a00ff
:100f78001e00780011002000010878001e0078008b
:100f8800603090009e007800008040008040eb00b8
:100f9800214098001e0078008040eb00014898002e
:100fa80010002000360037001e00780060309000e6
:100fb8009e00780000804000ae40900021409800dc
:100fc8001e007800603090008000e8001e00780065
:100fd8006130980029003700ae409000a0c2b300ed
:100fe80080cf50000b003a001e007800110020004e
:100ff800010878001e007800703090009e0078008c
:10100800008040008040eb0001489800100020005c
:101018001b0037001e007800f030900040062000ca
:10102800808f500008003a001e0078001100200050
:10103800010878001e0078008000eb0071309800ed
:101048000080eb000e0037001e0078007030900022
:101058009e00780000804000ae4090000148980053
:101068001e007800703090008000e8001e007800b4
:101078007130980001003700000000000000eb000c
:101088000080fa00000006000a00fa003007980005
:10109800410798000000eb00000f78000000eb000b
:1010a8001007980010002000200798001e00780004
:1010b800be0090000080400090407800d0c2b3008d
:1010c80080cf500004003a000080eb002007980011
:1010d8001e0fe8002d0037001e007800be009000ab
:1010e8000080400090407800b0c2b30080cf50002c
:1010f80025003a0010002000200798001e0fe80085
:10110800220037001e007800be00900000804000da
:10111800104078000000fb000003b1000000e00070
:10112800080035001e007800be00900000804000d6
:10113800104078000000fb000003b100e90f5000e8
:10114800020034000080eb00240037001e009000ed
:101158006a00b90000007800100798001e007800a7
:10116800be00900000804000104078000000fb00a6
:101178000003b1009e009000008040001007980016
:101188001e0fe80001003700000000001e00780074
:10119800be0090000080400090407800c0c2b300bc
:1011a80080cf5000060032001e007800be0090007c
:1011b80000804000104078000004e000d1ff3a00b1
:1011c800ae0090001e0090000088b90080007800f2
:1011d8004e009000010878000000eb000080fa0043
:0411e80000000600fd
:020000040000fa
:1011ec0000080000240000000000000000000000c7
:00000001FF
